:0200000490006A
:10000000987A02240D040090D9A20090E193009008
:10001000D1A20090491D009001CD00900000000089
:1000200000000000000000000000000061C100901E
:10003000492600900000000041A5009069C1009091
:1000400027040090270400902704009027040090C4
:1000500027040090270400902704009027040090B4
:10006000270400902704009027040090C9200090E6
:100070002704009027040090270400902704009094
:100080002704009027040090270400902704009084
:100090002704009027040090270400902704009074
:1000A0002704009027040090270400902704009064
:1000B0002704009027040090270400902704009054
:1000C0002704009027040090270400902704009044
:1000D00027040090F1CC00902704009027040090A2
:1000E00027040090270400900000000027040090DF
:1000F0002704009027040090270400902704009014
:100100002704009027040090270400902704009003
:1001100027040090270400902704009027040090F3
:1001200027040090D9200090270400902704009015
:1001300027040090270400902704009027040090D3
:1001400000000000000000000000000000000000AF
:1001500027040090270400902704009027040090B3
:1001600027040090270400902704009027040090A3
:100170002704009027040090B920009027040090E5
:100180002704009027040090270400902704009083
:10019000F1B10090270400902704009027040090FC
:1001A0002704009027040090270400902704009063
:1001B0002704009027040090270400902704009053
:1001C0002704009027040090270400902704009043
:1001D0002704009027040090270400902704009033
:1001E0002704009027040090270400902704009023
:1001F0002704009027040090270400902704009013
:100200002704009027040090270400902704009002
:1002100027040090D1C2009027040090270400908A
:10022000270400902704009027040090000000009D
:10023000270400902704009000000000270400908D
:1002400027040090270400902704009027040090C2
:1002500027040090270400902704009027040090B2
:1002600027040090270400902704009027040090A2
:10027000270400902704009027040090000000004D
:10028000270400902704009027040090000000003D
:10029000000000002704009000F002F800F0A6F82B
:1002A0000AA090E8000C82448344AAF10107DA45D1
:1002B00001D100F09BF8AFF2090EBAE80F0013F07D
:1002C000010F18BFFB1A43F00103184700F90300A0
:1002D00020F903000A4410F8014B14F00F0508BF81
:1002E00010F8015B240908BF10F8014B6D1E05D002
:1002F00010F8013B6D1E01F8013BF9D1641E03D0DB
:10030000641E01F8015BFBD19142E4D37047000009
:100310000023002400250026103A28BF78C1FBD80E
:10032000520728BF30C148BF0B6070476E2900F0EC
:100330000B86702900F04782662930F074846529A5
:1003400030F07184672930F06E84612930F06D845B
:1003500003681B0A28BF41F08001692900F0B881B9
:10036000642900F0B581752900F0B2816F2900F091
:10037000F986782900F01382E92900F09386E429B0
:1003800000F09086F52900F08D86EF2900F0F686C2
:10039000F82900F012820368DB0928BF41F08001D0
:1003A000632900F01486732900F01986E32901F00F
:1003B0003783F32901F03C83002070471FB530F0EC
:1003C000C4FB9DE8030000F019FF00F0EDFC040001
:1003D0000020002130F0EEFA401C60600020002177
:1003E00030F0FEFAE0601FBD10B510BD01F066FBF5
:1003F0001146FFF7E3FF2EF033FD01F051FC03B48B
:10040000FFF7F2FF03BC00F0C5FC0000094880477D
:1004100009480047FEE7FEE7FEE7FEE7FEE7FEE7E6
:10042000FEE7FEE7FEE7FEE704480549054A064BFE
:100430007047000051C20090990200909862022417
:10044000987A0224986A0224986A022410B500F06F
:10045000ABFC001D10BD00BF5D05030000487047E8
:10046000508D012453EA020C00F069802DE9F04B15
:100470004FF00006002B1FBFB3FA83F503FA05F413
:1004800024FA05F65E4012BF1643B2FA82F502FA6C
:1004900005F4C5F120051EBF22FA05FC44EA0C0450
:1004A000203556EA044C4FEA144418BF641C4FF040
:1004B00000084FF00009904271EB030C39D300297A
:1004C00019BFB1FA81F701FA07F6B0FA80F700FA1E
:1004D00007F6C7F120071EBF20FA07FC46EA0C0604
:1004E0002037B6FBF4FCA7EB0507103F07F01F0B06
:1004F000CBF120062CFA06F60CFA0BFB44BFB346F0
:100500000026202FA4BF5E464FF0000B5BEA060CCE
:1005100008BF4FF0010B19EB0B0948EB0608ABFBCA
:10052000027C06FB02CC0BFB03CCC01B71EB0C0165
:10053000C1E70B46024641464846BDE8F08B13B57D
:10054000084318BF4FF0FF300146AFF30080BDE80D
:100550001C40704753EA020C23D010B54C1084EABB
:10056000530404D54042C1F1000138BF491E1B426B
:1005700004D55242C3F1000338BF5B1EFFF772FF80
:1005800014F0804F04D04042C1F1000138BF491E31
:1005900014F0004F04D05242C3F1000338BF5B1E79
:1005A00010BD13B540424FF0000070EB0104B8BF1E
:1005B000012001F0004100281CBF6FF000414FF006
:1005C000FF30AFF300801CBD7CB51D4616460C0005
:1005D000009007D04142A14202D32044401E01E0D6
:1005E0004FF0FF30064B7B442A4669460190304667
:1005F00000F0C3FC002C02D0009A002111707CBDD9
:10060000C10900000FB41CB5084B06AA7B4469461B
:100610000090059800F0B1FC04460020694600F007
:10062000BFFC20461CBC5DF814FB000091090000D3
:1006300070B5044685690068C10601D5302600E022
:100640002026C00707D070BDD4E90121304690476D
:10065000206A401C20626D1EF6D570BD70B5044640
:1006600085690078C00707D170BDD4E90121202039
:100670009047206A401C20626D1EF6D570BD70B593
:100680000C460546012A05D02878800600D5EA697F
:10069000002302E0012305E05B1C934202D2E05CF0
:1006A0000028F9D1A869E618C01AA861286A184478
:1006B00028622846FFF7BCFF04E0D5E9012114F8C1
:1006C000010B9047B442F8D32846FFF7C7FF70BD2F
:1006D0002DE9F0410646002410687529314616A51B
:1006E00010D000F0C6FB002802DA404213A507E054
:1006F00031688A0701D512A502E0490704D511A582
:10070000012401E000F0BEFB00210A2206F12407CB
:1007100009E0B0FBF2FCB0FBF2F302FB1C0030304E
:1007200078541846491C0028F3D123462A463046FF
:10073000BDE8F04100F0AFBB000000002D0000005C
:100740002B00000020000000F0B40D4601880905D0
:1007500002D5214C7C4402E01F4C7C440E34002125
:1007600000F1240608E002F00F071209E75D42EAF3
:1007700003721B097754491C52EA0307F3D102782C
:100780000023120704D5702D06D009B102231134BD
:100790002246F0BC00F07FBB01231034F8E770B5AF
:1007A00004460D462146106800F06CFB02462946BF
:1007B0002046BDE870400023C6E7D21D22F00703A3
:1007C000D3E90023C0E70368126843F02003036005
:1007D0000823C3610023B7E7D60403002DE9F05FC7
:1007E000894604464FF0000ADFF874B1FB44C0F8B4
:1007F00020A02046E1688847002874D0252806D02C
:10080000D4E901219047206A401C2062F1E70026CC
:100810005F462046E16888472028054607DB312DE2
:1008200005D2781910F8200C08B10643F1E7B0079B
:1008300001D526F00406C4F81CA00027C4F818A0AF
:100840002A2D09D0284630F0ADF838B304EB8708DC
:10085000303DC8F8185019E059F8041B204604EB45
:1008600087029161E1688847012F054618D1E06948
:10087000002820DA26F020061DE0D8F8180000EB4A
:10088000800005EB40003038C8F818002046E168C9
:100890008847054630F086F80028EED1012F0AD0AF
:1008A0002E2D08D12046E16888477F1C0546022F7F
:1008B00046F02006C4DBA069002803DA404246F077
:1008C0000106A061F00701D026F010066C2D0BD0B8
:1008D000682D09D04C2D39D06A2D35D0742D35D0E6
:1008E0007A2D33D016E038E0E1682F46204688475D
:1008F000B842054609D16C2F26D04FF48060E168DC
:10090000064320468847054604E06C2F1AD04FF472
:10091000807006430DB3A5F14100192802D8203597
:1009200046F400664A462946204626604E46FFF7B2
:10093000FDFC80B101280BD0F61D26F0070000F168
:10094000080956E74020E4E78020D8E70020D6E7F2
:1009500006F104094DE7284652E7206ABDE8F09FFA
:100960006604030010B5002000F012FCFFF73CFD08
:10097000BDE81040012000F00DBA00000EB505469C
:1009800014460E4613A000F00AFC284600F007FCAF
:1009900016A000F004FC304600F001FC15A000F0A9
:1009A000FEFB00218DF80B100A210DF10A008DF8D5
:1009B0000A1008E094FBF1F201FB124294FBF1F4FF
:1009C000303200F8012D002CF4DC00F0E8FBFFF7DA
:1009D000C9FF00002A2A2A20617373657274696F47
:1009E0006E206661696C65643A2000002C2066699F
:1009F0006C6520002C206C696E65200040EA0103C4
:100A000010B59B070FD1042A0DD310C808C9121FB7
:100A10009C42F8D020BA19BA884201D9012010BDF1
:100A20004FF0FF3010BD1AB1D30703D0521C07E0BE
:100A3000002010BD10F8013B11F8014B1B1B07D122
:100A400010F8013B11F8014B1B1B01D1921EF1D193
:100A5000184610BD40EA0103024630B59B0710D18D
:100A60004FF0013400E008C208C91D1B9D4315EA80
:100A7000C41FF8D013F0FF0102F8011B0DD01B0AB0
:100A8000F8E711F8013B002B02F8013B05D011F803
:100A9000013B002B02F8013BF3D130BD10B5431CE4
:100AA00002E010F8011B71B18107FAD14FF0013259
:100AB00002C88C1A8C4314EAC211F9D0C01A0A0673
:100AC00003D0C01E10BDC01A10BD0A0401D0801E84
:100AD00010BD0902FCD0401E10BD40EA010370B5F4
:100AE0009B072ED14FF00136042A2AD308C810C91B
:100AF0009D1B9D43121F15EAC61517D0D8B2E1B24F
:100B0000401A50EA056110D198B2A1B2401A50EAD9
:100B100005410AD123F07F4024F07F41401A50EA7A
:100B2000052102D1180EA0EB146070BDA342DBD0EA
:100B300018BA21BA884201D9012070BD4FF0FF30A8
:100B400070BD0AB9002070BD10F8013B11F8014BCF
:100B500063B1A3420AD1521E08D010F8013B11F82C
:100B6000014B1BB1A34201D1521EEDD1181B70BD28
:100B7000032A40F2308010F0030C00F0158011F8C9
:100B8000013BBCF1020F624498BF11F801CB00F8A1
:100B9000013B38BF11F8013BA2F1040298BF00F8F5
:100BA00001CB38BF00F8013B11F0030300F02580B2
:100BB000083AC0F0088051F8043B083A51F804CBD9
:100BC000A0E80810F5E7121D5CBF51F8043B40F89F
:100BD000043BAFF30080D20724BF11F8013B11F8AA
:100BE00001CB48BF11F8012B24BF00F8013B00F8EE
:100BF00001CB48BF00F8012B704710B5203AC0F078
:100C00000B80B1E81850A0E81850B1E81850A0E8DF
:100C10001850203ABFF4F5AF5FEA027C24BFB1E878
:100C20001850A0E8185044BF18C918C0BDE81040BB
:100C30005FEA827C24BF51F8043B40F8043B08BFC4
:100C40007047D20728BF31F8023B48BF11F8012B8B
:100C500028BF20F8023B48BF00F8012B704702F084
:100C6000FF0343EA032242EA024200F00AB802F01C
:100C7000FF0343EA032242EA024200F024B84FF0A5
:100C800000020429C0F0128010F0030C00F01B8059
:100C9000CCF1040CBCF1020F18BF00F8012BA8BF67
:100CA00020F8022BA1EB0C0100F00DB85FEAC17C2B
:100CB00024BF00F8012B00F8012B48BF00F8012BDE
:100CC00070474FF0000200B513469446964620390F
:100CD00022BFA0E80C50A0E80C50B1F12001BFF4F5
:100CE000F7AF090728BFA0E80C5048BF0CC05DF85B
:100CF00004EB890028BF40F8042B08BF704748BFA9
:100D000020F8022B11F0804F18BF00F8012B70471C
:100D100030B44FF0013C50F8042BCCFA52F451F8A7
:100D2000043BD51A20D1FCB950F8042BCCFA52F46C
:100D300051F8043BD51A17D1B4B950F8042BCCFAAA
:100D400052F451F8043BD51A0ED16CB950F8042B6B
:100D5000CCFA52F451F8043BD51A05D1002CDAD064
:100D600030BC4FF00000704729BAB1FA81F111F0A0
:100D70001801D1F120008440F2D1CA40CB4012F0DA
:100D8000FF0213F0FF0330BCD01A70477047704762
:100D90007047000001491820ABBEFEE726000200A4
:100DA00000487047508D012400487047708D012421
:100DB00070B5064600F006FA056806F10B0020F053
:100DC0000704B4429CBF002070BD2B466A68BAB1CC
:100DD0001068A04210D304F1080188423CBF50685B
:100DE000586007D35168101941601168091B0160F0
:100DF00058601460101D70BD13465268002AE7D178
:100E00002146284600F0E6F90028DED170BD70B515
:100E10000446051F00F0D6F90068002C14BF446892
:100E200070BD002C18BFAC423CBF20466468F8D3AC
:100E300001680A18AA4218BF456003D12A6805460E
:100E40001144016028684119A1421CBF6C6070BD4B
:100E50006168696021680844286070BD10B5FFF7BB
:100E6000FDFA006810BD10B50446FFF7F7FA0460FC
:100E700010BD09684A0501D540B27047C905FCD5C7
:100E800000B2704709684A0501D5C0B27047C9056C
:100E9000FCD580B270472DE9F0470D469946924641
:100EA000044600F124080168880604D5E06921F0B1
:100EB0001001216000E00120A84201DD471B00E095
:100EC0000027A1697A1902EB0900081AA0612078AD
:100ED000C00602D42046FFF7ABFB002608E0D4E9A9
:100EE00001211AF806009047206A401C761C2062F7
:100EF0004E45F4DB2078C0060AD52046FFF798FB64
:100F000006E0D4E9012130209047206A401C20628D
:100F1000381EA7F10107F4DC07E0D4E9012118F835
:100F200005009047206A401C2062281EA5F101059B
:100F3000F3DC2046FFF792FB2078000602D5022062
:100F4000BDE8F0870120FBE711680268006A5305DD
:100F500001D508700AE0D30501D5088006E0130624
:100F600003D5C217C1E9000200E008600120704704
:100F700001694A1C02610878704700B58FB0CDE95D
:100F800001310021059105497944CDE9031011464D
:100F90006846FFF723FC0FB000BD0000E5FFFFFF30
:100FA0000A6802F8010B0A607047D1E900239A42EF
:100FB00002D2531C0B601070704710B5436913B117
:100FC000AFF3008001E0FFF75AFB012010BD12785B
:100FD00000F124010A7000224A700122EDE7116835
:100FE0004FF0FF32E9E700002DE9FF5F15468A4622
:100FF0000446DFF8AC80F8440027D8E900103E46EC
:10100000CDE9001010E03AF816106A4602A800F088
:1010100013FD411C07D02178890603D5E2693918F0
:1010200091420DD80744761C2078800602D5E069ED
:10103000B84205DDAE42E6DB3AF816000028E2D100
:10104000A069C01BA0612046FFF7F2FAD8E90010A2
:10105000CDE90010002017E03AF818106A4602A8FF
:1010600000F0EAFCB0F1FF3F81460BD000250DF106
:10107000080B05E0D4E901211BF8050090476D1C21
:101080004D45F7D308F10100B0428046E4DB206A09
:10109000384420622046FFF7E1FABDE8FF9F0000D8
:1010A0009EFC02002DE9F0418046D21D22F007028D
:1010B0000025D2E90002F52915A614D0011E72F10F
:1010C000000106DA0023D0EB030063EB020211A655
:1010D00008E0D8F800108B0701D50FA602E04907F9
:1010E00001D50EA601251146002408F1240704E0CD
:1010F00000F0BAF830323A55641C50EA0102F7D1D8
:101100002B46324621464046BDE8F041FFF7C3BEBC
:10111000000000002D0000002B0000002000000057
:1011200030B4002100F1240408E002F00705D208E1
:10113000303542EA4372DB086554491C52EA030524
:10114000F3D10468002310A2250708D504F0200479
:101150000C4304D0C46901230CA2641EC46130BCDA
:10116000FFF799BE10B5044621461068FFF78AFEC6
:1011700002462046BDE810400023D1E7D21D22F0F0
:101180000701D1E90023CBE7000000003000000098
:1011900010B500F07BFCBDE8104000F071BC10B54C
:1011A000044602E0641C00F004F820780028F9D11D
:1011B00010BD08B569468DF800000320ABBE08BD20
:1011C0007047000000487047588D012470477047F1
:1011D0007047704738B504460A4600206946AFF3A9
:1011E0000080002808BF38BD02460099204600F064
:1011F0008AFC012038BD012000F074BDF8B5AFF3C2
:101200000080054600200C46102000BF0646A819A5
:10121000A0420DD9324669460020AFF30080070096
:1012200008BF00F05FFD0098A04218BF0546C41932
:10123000FFF7C8FF05600746F01D20F007004619BC
:10124000284600F00AF8B44208BFF8BDA21B314698
:101250003868BDE8F84000F056BC00210160C0E9E4
:10126000011070471020704730B5B0F10A0271F1DB
:1012700000034FEA900E4EEA817EB0EB0E0061EB68
:1012800091014FEA101E4EEA017E10EB0E0041EB79
:1012900011114FEA102E4EEA016E10EB0E0041EBD9
:1012A00011214FEA104E4EEA014E10EB0E0041EBB9
:1012B0001141401841F100014FEAD00040EA41706D
:1012C0004FEAD1014FEA810444EA907410EB8005A3
:1012D00044EB01046D1944EB0404521BA3414FF08D
:1012E000000348BF0A3200D530BD401C41F1000167
:1012F00030BD2DE9FF4F0C461E464FF0FF378BB037
:10130000D2E90001DDF860800A908A46C1F30A55EF
:1013100005B93D46002108464FF00000BAF1000F24
:1013200000F4400005DA00EB80004FF4400101EAD0
:1013300050004FEA9059B9F1010F00DDB9460A9803
:1013400050EA4A000ED044F61050A5F2FF3545434E
:101350002F14B8F1000F1ED07542291E1EDDC9F1F1
:1013600000021CE0B8F1010F4FF0000001D0302165
:1013700003E0F24305E02154401CB042FBDB304661
:101380000022002121540B99C1F80880C1E90020F6
:101390000FB0BDE8F08FBD1B6D1CDEE74A4600DADA
:1013A000694206A800F00AFC06AB93E8070003AB0D
:1013B00083E8070050460A992EF0AEFD8DE807003D
:1013C000A0F500501F3800900398002D0ADD42F26E
:1013D0001F014A460844002303A9039068462FF0E2
:1013E00017F809E0A0F500504A461F38002303A96A
:1013F000039068462FF021F88DE807000004000CE8
:1014000003D04FF0FF30410800E01046B8F1000F64
:1014100003D00022009215461EE0751E05D4FFF78A
:1014200023FF303262556D1EF9D5B34601220843C1
:1014300002D000227F1C04E02078302801D1002255
:101440007F1E002A099784D01DE0112D07DAFFF7CF
:101450000BFF303262556D1C50EA0102F5D1084392
:1014600002D00098C8B10EE00021681E05E0235CA0
:10147000625C63542254401E491C8142F7DBAB4638
:10148000A81B401E0990002004F80B000B98099A35
:10149000C0F80880C0E9002B7AE711264FF0000859
:1014A00057E72DE9F04F88460446D21D22F0070188
:1014B00091B0D1E90001CDE90A012FF0F5F802461B
:1014C0000B98C00F01D02D2007E02068810701D5BF
:1014D0002B2002E0202101EAC000032A099001D05C
:1014E000072A05DB03464146204600F027FB0BE1B7
:1014F0002078800601D5E06900E00620B8F1650F8C
:10150000814606D0B8F1660F18D0B8F1670F70D1D8
:1015100031E00020B9F1110F009001DB112301E04F
:1015200009F101030AAA01A90CA8FFF7E2FEDDE90F
:101530000C70002609F10105834647E001204B4667
:1015400000904FF000470AAA01A90CA8FFF7D1FEAE
:10155000DDE90DB00C995D46002610B909F10100D6
:101560000D18B9EB050003D4C0F1FF3609F10105F0
:10157000A5EB09002BE0B9F1010F01DA4FF00109E9
:101580000020B9F1110F0090484601DD112300E061
:1015900003460AAA01A90CA8FFF7ABFEDDE90C700F
:1015A0004D4600268346207800070AD4AB4500DA72
:1015B0005D4601A8012D04DD411911F8011C3029F7
:1015C00007D04F4502DA17F1040F04DA01208246F2
:1015D0000FE06D1EEEE7002F02DCED1B3E4403E042
:1015E000781CA84200DD7D1CB81B00F1010A4FF0F9
:1015F00000472078000703D4AA4501DB4FF0FF3AEB
:101600000021B7F1004F0DF143088DF8431024D0AD
:1016100002202B23002F01DA7F422D230A21021EF4
:10162000A0F1010000DC5FB197FBF1FC97FBF1F248
:1016300001FB1C7C17460CF1300C08F801CDEEE7DD
:10164000A8F1010003702188090501D5452100E0BA
:101650006521A0F1010800F8011C09980FA9A1EB70
:101660000807FF1D00B10120411901EBEA70A169D3
:101670003844081A401EA0612078C00602D42046D3
:10168000FEF7D6FF099828B1D4E901219047206AD6
:10169000401C20622078C00622D52046FEF7C8FFF5
:1016A0001EE0002E04DBB34502DD01A8805D00E0F2
:1016B0003020D4E901219047206A401C2062761C2A
:1016C000AAF101005FEA000A0AD1FFF76DFBC068CA
:1016D0000168405CD4E901219047206A401C2062E7
:1016E000281EA5F10105DCDC07E0D4E9012118F88A
:1016F000010B9047206A401C2062381EA7F10107A9
:10170000F3DC2046FEF7AAFF032011B041E60000FB
:101710002DE9F04F04460D46D21D22F0070089B096
:10172000D0E90097484639462EF0BEFF0246F80F32
:1017300001D02D2307E02068810701D52B2302E08B
:10174000202101EAC0038DF820300BB1012000E018
:101750000020032A824601D0072A04DB29462046BE
:1017600000F0ECF93FE12078800601D40D2500E07F
:10177000E569C7F30A560D2D49DA00214FEA175BD8
:1017800008464FF00000002F00F4400007DA00EB9D
:1017900080004FF4400100EBD07001EA6000811539
:1017A000012901DD4FF0FF3100224FEA850CBCF129
:1017B000180F06D31346ACF118004FF08052C24008
:1017C00003E04FF4801323FA0CF30CF10C0CBCF182
:1017D000200F04D3ACF1200C09FA0CF001E007FA59
:1017E0000CF000294FF0004801DD18B90FE00ED1D0
:1017F00040450CD319EB02095F4121B9404502D1A4
:101800009F4329EA0209BBEB175F00D0761C2088B2
:10181000000502D57B48784402E07A4878441938BC
:1018200008AA302302F80A30037C0AF10101002ED5
:101830000AF1020A53546A4602DC4FF0300101E01B
:101840004FF031014FF001088DF8001002D0A6F2E0
:10185000FF3603E059EA470100D06B4E002D02DC51
:101860002178090704D54FF002082E218DF80110C8
:10187000C44600210BE0C7F303433F01C35C491C8E
:101880006D1E02F80830052908F1010801DA002D63
:10189000F1DC00210CE000EB1973491C1B786D1E74
:1018A000082902F808304FEA091908F1010801DA9D
:1018B000002DF0DC21688B0602D516E0A8F10108A6
:1018C000E04505DD02EB080313F8013C302BF5D0B1
:1018D000B8F1000F09DD02EB080313F8013C2E2BD1
:1018E00003D1090701D4A8F10108002D05DD3E212F
:1018F00002F808106D1E08F10108407C002E02F865
:10190000080008F1010804DA2D20764202F80800E8
:1019100002E02B2002F808000A214FF47A70864278
:1019200008F101080BDB96FBF0F3303302F80830C6
:1019300096FBF0F308F1010800FB136601E0642E4A
:101940000CDB642096FBF0F3303302F8083096FB92
:10195000F0F308F1010800FB136601E00A2E06DB34
:1019600096FBF1F0303002F8080008F1010896FB10
:10197000F1F001FB1060303002F80800A16908F1B5
:10198000010808EB050202EB0A00081AA0612078A2
:10199000C00602D42046FEF74BFE216A08AE01EBDA
:1019A0000A00206204E0D4E9012116F8010B9047F7
:1019B000BAF1010AF7D22078C00602D52046FEF718
:1019C00037FE6E4609E016F8010B3E280FD0D4E929
:1019D00001219047206A401C2062B8F10108F2D230
:1019E0002046FEF73BFE09B00320BDE8F08F206AD9
:1019F0002844206203E0D4E90121302090476D1E85
:101A0000EBD3F8E799F4020002FCFFFF10B543693D
:101A100013B1AFF3008001E0FFF7E6FA012010BD3B
:101A2000128800F1240182840022C2840122EDE7A1
:101A300011684FF0FF32E9E72DE9F04116460C46F8
:101A40000546FEF703FD036893F80101012807D05E
:101A5000FF2C12D8185D80B101202C70BDE8F081F8
:101A6000D3F807013246214603F20713C718284668
:101A7000BC46BDE8F041002360474FF0FF30EDE782
:101A8000002801D0FFF786B97047000010B500218B
:101A900002A000F00EF9012010BD0000534947419B
:101AA0004252543A2041626E6F726D616C207465CF
:101AB000726D696E6174696F6E0000007546FFF7A4
:101AC0006FF9AE4605006946534620F0070085468B
:101AD00018B020B5FEF7A8FCBDE820404FF0000686
:101AE0004FF000074FF000084FF0000BAC46ACE899
:101AF000C009ACE8C009ACE8C009ACE8C00921F0F5
:101B000007018D467047034640688C46002818BF81
:101B100088423CBF03464068F8D31868184488429E
:101B200007D00CF1030020F00700001D411A521AE3
:101B30000146081D0A60FFF76AB900002DE9F0416F
:101B40001F46044603260168072A01F4006004DBEF
:101B500008B116A505E016A503E008B115A500E03B
:101B600015A521F010002060A069C01EA0610FB172
:101B7000401EA0612046FEF75BFD4FB1D4E9012174
:101B800038469047206A401C2062C01C206206E054
:101B9000206AFAE7D4E9012115F8010B9047761E77
:101BA000F8D22046FEF75AFDBDE8F0814E414E00C6
:101BB0006E616E00494E4600696E66002DE9F04781
:101BC000814616468AB0354878440DC88DE80D0028
:101BD00032487844801C03AC0DC884E80D0041F6FF
:101BE0009B300844372190FBF1F290FBF1F5A5F111
:101BF000800501FB12041B3C02D56442012000E079
:101C00000020DFF898A080460027FA44AAF1BE0A17
:101C10000EE0E0070AD03246684607EB4701012391
:101C20000AEB81012EF009FC8DE8070064107F1C8F
:101C3000002CEED1194F7F44AE3F19E0E80715D0D4
:101C400007EB04100DF1180A90E80E008AE80E0068
:101C5000C068F04201D1981908903246012306A9C4
:101C600003A82EF0EAFB03AB83E807006D10641CA9
:101C7000002DE3D14FF0010332466946B8F1000F61
:101C800003A802D02EF0C4FB01E02EF0D6FBC9E978
:101C90000001C9F808200AB0BDE8F08778F1020019
:101CA00010B50446AFF300802046BDE81040FEF7B3
:101CB000A6BB70B505460C460A2000E06D1CFFF778
:101CC00078FA35B128780028F8D102E0641CFFF7D3
:101CD00070FA14B120780028F8D1BDE870400A20CD
:101CE000FFF767BA10B500F005F8BDE81040FFF740
:101CF000C7BE000010B5012805D0002103A0FFF7E2
:101D0000D8FF012010BD09A1F8E700005349475250
:101D1000544D454D3A204F7574206F6620686561BB
:101D200070206D656D6F7279000000003A20486583
:101D30006170206D656D6F727920636F727275705E
:101D40007465640000000000FEE700000000000071
:101D500070B549F2E8650C46C2F2014528604220A0
:101D600028716420A860284600F0B6F8A88947F6D4
:101D7000A276B04208D1E88947F27361884203D164
:101D8000BDE8704008F0ACBA60202871284600F029
:101D9000A3F8A889B04209D1E88942F24361884298
:101DA00004D82046BDE870402DF0CEB942202871FD
:101DB000284600F091F8A88947F6A271884209D117
:101DC000E88947F22371884204D82046BDE8704074
:101DD0002DF05EBE78202871284600F07DF8E88955
:101DE00045F24061884204D12046BDE870402DF0A4
:101DF00073BB00202871E88170BD00000000000066
:101E000070B582B01646027905468DF80710006855
:101E1000511C0DF107020123AC68009403F05CFB38
:101E200029792868AA68012301310092324603F01B
:101E300053FA002818BF012002B070BD0000000056
:101E400080B584B003798C46D0F800E0591C8068D6
:101E500001230290CDE9002302237046624603F07D
:101E60005BFC002818BF012004B080BD000000000A
:101E700080B582B08DF8061011788DF807100179C1
:101E8000D0F800C00DF10602806802230090604681
:101E900003F022FB002818BF012002B080BD000023
:101EA00080B584B08C4601798DF80F20026801312D
:101EB00080684FF0010E0DF10F03CDE9003E0223C3
:101EC00002901046624603F0BBFD002818BF0120B7
:101ED00004B080BD00000000F0B585B00179044673
:101EE00001258DF80C50782920D149F2E8660223AB
:101EF000C2F2014603AF009731793068B2680292AE
:101F0000013143F20A02019503F006FC31797A1C93
:101F1000306802230131B768CDE9002543F20B0296
:101F2000029703F0F9FB0020A08169E040F2FF1066
:101F3000ADF80E0020680DF10E020223A66800968F
:101F400003F0CAFA21791C208DF8100020680131B5
:101F500004AA0123A668009603F0BEFA217903AF14
:101F6000206801230131A26800923A4603F0B4F9D7
:101F700021791D208DF81100206801310DF1110229
:101F800001237D1CA668009603F0A6FA217920683B
:101F9000A2680123013100922A4603F09DF9BDF8A1
:101FA0000C0021790DF1120201230131A66800BA5B
:101FB000000CA0810A208DF812002068009603F022
:101FC0008BFA21792068A2680123013100923A46F8
:101FD00003F082F921790B208DF81300206801317C
:101FE0000DF113020123A768009703F075FA217918
:101FF0002068A2680123013100922A4603F06CF99F
:10200000BDF80C0001BA0020090CE18105B0F0BD5B
:10201000806B816C496D022906D0012180F8351052
:10202000C16C41F04001C16400F0A6BB000000009B
:1020300010B5846BA26BA06C002A01680B6803F4D6
:10204000002209D0A36BDB0712D18AB1C968E26B09
:1020500001EBC201002213E0C2B90868000317D4E3
:10206000E06BD4E9103202EB80000861A3630FE05B
:102070000A6812030CD40969E26B01EBC201012268
:1020800000F022FEA06B0138A06301E0606CC86024
:10209000A06B216C88420BD12068C16841F001011E
:1020A000C1600068800758BF10BD012084F835006A
:1020B00010BD00000000000049F2FC60C2F20140C7
:1020C00000F0E2BB0000000049F2C470C2F201401F
:1020D00001F032BD0000000049F24C70C2F2014034
:1020E00001F02ABD0000000040F20F42D0F800C00D
:1020F000C4F20202944510DC6F22C4F2020294453D
:1021000020DC3F22C4F20202944536DC1022C4F2E5
:102110000202944554D028224EE040F26F42C4F2AD
:10212000020294451ADC40F23F42C4F20202944596
:102130002ADC40F21042C4F20202944540D040F240
:10214000284239E09F22C4F20202944525DC702225
:10215000C4F20202944533D088222DE040F29F421F
:10216000C4F2020294451FDC40F27042C4F2020243
:10217000944525D040F288421EE04022C4F202027B
:1021800094451DD0582217E040F24042C4F20202AA
:10219000944515D040F258420EE0A022C4F202024B
:1021A00094450DD0B82207E040F2B842C4F20202D2
:1021B000944505D040F2A042C4F20202944517D1E2
:1021C0000CF0F8024AF6AB23103ACAF6AA23A2FB97
:1021D000033109A35F2AC1F302115B5C40F2FF31B6
:1021E0002CEA0101C36588BF043181650846704748
:1021F0002CF0FF01F9E700BF0006101600061016CC
:1022000080B540F20F4ED0F800C0C4F2020EF44583
:1022100014DC40F26F0EC4F2020EF44523DC40F2EF
:102220003F0EC4F2020EF4453BDC40F2100EC4F245
:10223000020EF4455CD040F2280E55E040F26F4E9D
:10224000C4F2020EF4451DDC40F23F4EC4F2020E11
:10225000F4452FDC40F2104EC4F2020EF44547D094
:1022600040F2284E40E040F29F0EC4F2020EF445C8
:1022700029DC40F2700EC4F2020EF44538D040F270
:10228000880E31E040F29F4EC4F2020EF44523DC8A
:1022900040F2704EC4F2020EF44529D040F2884E4E
:1022A00022E040F2400EC4F2020EF44520D040F28B
:1022B000580E19E040F2404EC4F2020EF44517D019
:1022C00040F2584E10E040F2A00EC4F2020EF44567
:1022D0000ED040F2B80E07E040F2B84EC4F2020E43
:1022E000F44505D040F2A04EC4F2020EF44509D1E7
:1022F000CCF804308068402809D1CCF80820CCF80C
:102300000C1080BDCCF8043080684028F5D0CCF8A3
:102310000810CCF80C2080BD70B540F26F44D0F8A6
:1023200000C0C4F20204D0F858E0A44519DC9F258F
:10233000C4F20205AC4531DC5725C4F20205AC45B8
:1023400056DC1025C4F20205AC4500F09280282529
:10235000C4F20205AC4500F08C804025C4F20205B1
:1023600084E045F22F45C5F60205AC452BDC40F272
:10237000B745C4F20205AC4548DC40F27045C4F2F2
:102380000205AC4575D040F28845C4F20205AC4563
:102390006FD040F2A045C4F2020567E040F2274545
:1023A000C4F20205AC4540DCA025C4F20205AC45F0
:1023B0005FD0B825C4F20205AC455AD040F21045B2
:1023C000C4F2020552E045F26B45C5F60205AC4584
:1023D0003CDC45F23045C5F60205AC4549D045F236
:1023E0004445C5F60205AC4543D045F258453BE0AF
:1023F0005825C4F20205AC453BD07025C4F2020555
:10240000AC4536D08825C4F202052FE040F2B8452D
:10241000C4F20205AC452CD045F20845C5F60205CC
:10242000AC4526D045F21C451EE040F22845C4F2DA
:102430000205AC451DD040F24045C4F20205AC4552
:1024400017D040F25845C4F202050FE045F26C4542
:10245000C5F60205AC450CD045F29445C5F602051B
:10246000AC4506D045F28045C5F60205AC4540F0C6
:10247000D180456EC66E002E866E6E601CBFD0E9A0
:102480001C566E60A44515DC9F24C4F20204A445CA
:102490002BDC5724C4F20204A4454EDC1024C4F201
:1024A0000204A44576D02824C4F20204A44571D0C5
:1024B00040246BE045F22F44C5F60204A44527DC16
:1024C00040F2B744C4F20204A44542DC40F2704436
:1024D000C4F20204A4455DD040F28844C4F2020470
:1024E000A44557D040F2A04450E040F22744C4F243
:1024F0000204A4453CDCA024C4F20204A44549D053
:10250000B824C4F20204A44544D040F210443DE093
:1025100045F26B44C5F60204A44553DC45F2304451
:10252000C5F60204A4455FD045F24444C5F6020452
:10253000A44559D045F2584452E05824C4F202044C
:10254000A44527D07024C4F20204A44522D08824D4
:102550001CE040F2B844C4F20204A4451AD045F28B
:102560000844C5F60204A4453ED045F21C4437E0B9
:1025700040F22844C4F20204A4450BD040F2404487
:10258000C4F20204A44505D040F25844C4F2020447
:10259000A4453FD18468C06D00F01F003F2505FAB7
:1025A00000F0CEF80800DCF80000402C20F4802079
:1025B000CCF80000CCF8043023D0CCF80810CCF8CC
:1025C0000C2070BD45F26C44C5F60204A4450BD046
:1025D00045F28044C5F60204A44505D045F2944472
:1025E000C5F60204A44515D1C46D806804F01F042B
:1025F0000125402805FA04F4CEF80440CCF8043054
:1026000004D1CCF80820CCF80C1070BDCCF8081020
:10261000CCF80C2070BD000080B5C0B00B4602465F
:1026200068464FF48071FDF7CFFF49F2CC60C2F2EB
:1026300001400168684611B1884740B080BD00F094
:102640002FF840B080BD000070470000000000007F
:1026500080B50A2002F090FC03A000F04DF803A022
:10266000BDE8804000F048B80D0A0000537973744B
:10267000656D20696E697469616C697A656420773B
:1026800069746820646972656374205541525420EE
:10269000286E6F20444D41290D0A00000000000003
:1026A000002808BF704770B50446FEF7F7F90546E5
:1026B000B0F5797FC8BF40F2E53549F2E4262146FE
:1026C000C2F201462A463046FEF752FA40F60D2085
:1026D000705340F61420A91C8AB2C2F200404FF495
:1026E0007A730025006875543146BDE8704006F0E5
:1026F000EBBD00000000000083B070B581B0CDE9F3
:102700000512079330B349F2E4250446C2F20145AD
:1027100005AB40F2E73128462246009340F2E73607
:10272000FDF752FF012817DB40F61421B042B8BF75
:102730000646C2F200410020B2B2A85508684FF424
:102740007A73294606F0C0FD002818BF4FF0FF3607
:10275000304601E04FF0FF3001B0BDE8704003B0FB
:1027600070470000000000003220C82107F088FBFD
:10277000FAE700000000000010B549F2E4610446E9
:10278000C2F20141086801300860204600F058FAA2
:102790000A2002F0F1FB49F2E06040F64821C2F263
:1027A00001404FF41642C2F200414FF496430068D4
:1027B00000FB021200212046BDE8104000F0CCB919
:1027C000B0B5054602F0E0FC49F2E06C40F6482462
:1027D000C2F2014CC2F20044DCF80020B2FA82F1ED
:1027E0001346002A4FEA511118BF0123CCF80010FC
:1027F00040F61C21C2F20041002A0B6023462A68E1
:1028000008BF03F5164393624FF41642096849F274
:102810002063BFF34F8F01FB024101F01E021A43F8
:102820004EF65C73CEF20003203A1960202A01F1C3
:102830002001F9D848F6BC51BFF34F8FC2F20141D5
:10284000BFF36F8F0A68531C48F6CC52C2F20142A4
:102850000B601568451BB5F57A7F07D348F6B4556C
:10286000C2F201452B6000230B60106049F648203E
:10287000C2F2014001680131016048F6B8500121FF
:10288000C2F201400160B0BD70B50446006842F27A
:1028900011060569C9F20006690721D4A8072DD4DD
:1028A000E8063BD4280705D5206808214161204669
:1028B00000F006FAE80708BF70BD206801688907C4
:1028C00003D5C16821F01E01C160C16821F001017A
:1028D000C160012141612046BDE87040FFF770BF33
:1028E00004214161E06C40F00200E06484F835109E
:1028F000A06C066500F0D0FFA807D1D521680222A0
:10290000A06C4A61E16C41F00101E164042184F8AA
:102910003510066500F0C0FFE806C3D52068102119
:102920004161204600F054F82807C3D5BCE70000F9
:10293000002849D0B0B5044690F8350010B92046BB
:1029400000F04AF8022084F83500D4F818E04FF27D
:102950000705BEF1000FCFF6E0751CBF00206062D6
:1029600094E80510E368102A016801EA0501016096
:10297000D4E9045141EA0301236A41EA0501656A89
:1029800041EA0C0141EA0301A36A41EA0501E56A53
:1029900041EA0301236B41EA0501056841EA0301AD
:1029A00041EA050141EA0E0141EA0201016001D15B
:1029B000E1698161C16841F01E01C1600020E064ED
:1029C000012184F83510B0BD0120704700000000DF
:1029D00070470000000000002DE9F04786B040F28B
:1029E00000090446C4F60209006800274845059717
:1029F000CDE903770297019702D006B0BDE8F087D2
:102A000044F2E04040F20048C5F60200C5F6020874
:102A100001AE4FF0020A50F8041C0D2541F00101EF
:102A200040F8041C50F8041C01F0010100910099C9
:102A3000016841F010010160016801F0100100918E
:102A40000099016841F001010160016801F0010194
:102A500000910099016841F004010160016801F0F2
:102A6000040100910099016841F0080101600168CA
:102A700001F0080100910099016841F00201016034
:102A80000068314600F00200009000987320019029
:102A900008F54060CDE902A70497059502F080FA99
:102AA00050203146CDE9010A09F180500595CDE964
:102AB000037702F075FAC0203146CDE9010A08F526
:102AC00080600595CDE9037702F06AFA0820314667
:102AD000CDE9010A08F500600595CDE9037702F01C
:102AE0005FFA80203146CDE9010A40460595CDE9DF
:102AF000037702F055FA49F24C7540F22840C2F2D1
:102B00000145C4F2020028604B20C5E901074FF4DB
:102B1000806028614FF4805068614FF48040A86164
:102B20004FF48070E8614FF44030EF60C5E908076A
:102B3000284601F051FD08B1FFF716FE4E20012195
:102B40000022A564AC6303F03BFA4E2003F028FAA0
:102B500006B0BDE8F0870000B0B582B0044690F83A
:102B6000340001284FF0020065D04FF0010E84F8C8
:102B700034E084F83500D4F800C0A06CDCF80050D4
:102B800045F48045CCF80050DCF8005025F00205F3
:102B9000CCF80050DCF80050294342F21105CCF883
:102BA000001042F23101C9F20005C5640025C9F2E6
:102BB0000001B5EB134FC1630565A563E5632564AB
:102BC00065640AD10CF1280102F016F850B34020D8
:102BD000E064012084F835002AE04164C4F838E05C
:102BE000E3636264E16BB1F5803F0BD3002100BF6A
:102BF000E36B5B08E363A36B5B00A363E36BB1EB85
:102C0000134FF5D1A16B0239A163A16B2164E16B74
:102C1000E56B009502EB81030CF1280100F0D0F880
:102C20000028D4D12068016841F001010160002032
:102C3000002184F8341002B0B0BD00000000000094
:102C4000B0B5044690F834000225012835D040F292
:102C500050000121C2F2004084F8341044F6D351F0
:102C60004FF618420068C1F2620184F83550CFF681
:102C7000FF72A0FB01012068490A5143026822F05B
:102C800001020260013104D20268D207FAD10025A4
:102C900004E0E16C032541F02001E164016821F4C6
:102CA00080410160A06C00F07FFBE06CE0640120DB
:102CB00084F83500002084F834002846B0BD0000B8
:102CC000704700000000000040F20F430068C4F2AB
:102CD0000203984210DC6F23C4F20203984220DC06
:102CE0003F23C4F20203984236DC1023C4F20203ED
:102CF000984254D028234EE040F26F43C4F20203BE
:102D000098421ADC40F23F43C4F2020398422ADCA4
:102D100040F21043C4F20203984240D040F22843EC
:102D200039E09F23C4F20203984225DC7023C4F2E9
:102D30000203984233D088232DE040F29F43C4F22F
:102D4000020398421FDC40F27043C4F2020398422F
:102D500025D040F288431EE04023C4F2020398428B
:102D60001DD0582317E040F24043C4F202039842BA
:102D700015D040F258430EE0A023C4F2020398425B
:102D80000DD0B82307E040F2B843C4F202039842E2
:102D900005D040F2A043C4F20203984208D112B118
:102DA00000F1100201E000F10C02002011607047F8
:102DB00012B100F11002F8E700F10C02F5E7000093
:102DC0002DE9F04104468068802805D14FF48070D9
:102DD00060650120BDE8F08194F83400012802D13B
:102DE0000220BDE8F081012084F8340094F8350019
:102DF000012822D1022084F835000020606540F2CD
:102E00000F482068C4F2020840F26F454045DDF8E3
:102E100018C0C4F2020513DC6F27C4F20207B842DF
:102E20001FDC3F27C4F20207B84235DC1027C4F28A
:102E30000207B84254D028274DE04FF40060C7E79E
:102E4000A8421ADC40F23F47C4F20207B8422ADC2B
:102E500040F21047C4F20207B84241D040F228477E
:102E600039E09F27C4F20207B84225DC7027C4F27C
:102E70000207B84234D088272DE040F29F47C4F2C1
:102E80000207B8421FDC40F27047C4F20207B842A2
:102E900026D040F288471EE04027C4F20207B8421D
:102EA0001ED0582717E040F24047C4F20207B8424C
:102EB00016D040F258470EE0A027C4F20207B842ED
:102EC0000ED0B82707E040F2B847C4F20207B84274
:102ED00006D040F2A047C4F20207B84240F05A823E
:102EE00007683F2647F48027076008270361D4E975
:102EF000160303F01F0306FA03F3C351204663468B
:102F0000FFF77EF92068A84219DC9F21C4F2020174
:102F1000884231DC5721C4F20201884256DC10217C
:102F2000C4F20201884200F092802821C4F202011A
:102F3000884200F08C804021C4F2020184E045F216
:102F40002F41C5F6020188422BDC40F2B741C4F2A2
:102F50000201884248DC40F27041C4F2020188421A
:102F600075D040F28841C4F2020188426FD040F22D
:102F7000A041C4F2020167E040F22741C4F202011D
:102F8000884240DCA021C4F2020188425FD0B8210F
:102F9000C4F2020188425AD040F21041C4F2020148
:102FA00052E045F26B41C5F6020188423CDC45F235
:102FB0003041C5F60201884249D045F24441C5F688
:102FC0000201884243D045F258413BE05821C4F207
:102FD000020188423BD07021C4F20201884236D0FF
:102FE0008821C4F202012FE040F2B841C4F202018C
:102FF00088422CD045F20841C5F60201884226D00D
:1030000045F21C411EE040F22841C4F20201884210
:103010001DD040F24041C4F20201884217D040F274
:103020005841C4F202010FE045F26C41C5F60201BD
:1030300088420CD045F29441C5F60201884206D080
:1030400045F28041C5F60201884240F09681616EEA
:10305000E26E002AA26E4A601CBFD4E91C124A60CC
:10306000404510DC6F21C4F2020188421CDC3F2184
:10307000C4F20201884232DC1021C4F2020188420B
:1030800051D028214AE0A8421ADC40F23F41C4F264
:10309000020188422ADC40F21041C4F20201884257
:1030A00041D040F2284139E09F21C4F20201884218
:1030B00025DC7021C4F20201884234D088212DE041
:1030C00040F29F41C4F2020188421FDC40F270418D
:1030D000C4F20201884226D040F288411EE040211D
:1030E000C4F2020188421ED0582117E040F240414C
:1030F000C4F20201884216D040F258410EE0A021ED
:10310000C4F2020188420ED0B82107E040F2B84173
:10311000C4F20201884206D040F2A041C4F202018A
:10312000884240F02A8101680B2262F34401016069
:10313000416941F080014161216C09B9A16C19B16B
:103140000821026811430160A84219DC9F21C4F2E2
:103150000201884231DC5721C4F20201884256DC68
:103160001021C4F20201884200F091802821C4F2AB
:103170000201884200F08B804021C4F2020184E009
:1031800045F22F41C5F6020188422BDC40F2B741DF
:10319000C4F20201884248DC40F27041C4F20201EC
:1031A000884274D040F28841C4F2020188426ED055
:1031B00040F2A041C4F2020167E040F22741C4F2AC
:1031C0000201884240DCA021C4F2020188425ED0A4
:1031D000B821C4F20201884259D040F21041C4F231
:1031E000020152E045F26B41C5F6020188423CDC27
:1031F00045F23041C5F60201884248D045F24441CB
:10320000C5F60201884242D045F258413BE05821C0
:10321000C4F2020188423AD07021C4F2020188420D
:1032200035D08821C4F202012FE040F2B841C4F247
:10323000020188422BD045F20841C5F602018842BE
:1032400025D045F21C411EE040F22841C4F20201A3
:1032500088421CD040F24041C4F20201884216D09C
:1032600040F25841C4F202010FE045F26C41C5F64C
:10327000020188420BD045F29441C5F60201884212
:1032800005D045F28041C5F6020188426ED1216E1B
:103290000A68D20303D50A6842F480720A60E16EBC
:1032A00019B10A6842F480720A60404510DC6F214F
:1032B000C4F2020188421CDC3F21C4F202018842B0
:1032C00032DC1021C4F2020188424FD028214AE0AA
:1032D000A8421ADC40F23F41C4F2020188422ADCD3
:1032E00040F21041C4F2020188423FD040F228412E
:1032F00039E09F21C4F20201884225DC7021C4F22A
:103300000201884232D088212DE040F29F41C4F270
:10331000020188421FDC40F27041C4F2020188427F
:1033200024D040F288411EE04021C4F202018842CC
:103330001CD0582117E040F24041C4F202018842FB
:1033400014D040F258410EE0A021C4F2020188429C
:103350000CD0B82107E040F2B841C4F20201884223
:1033600004D040F2A041C4F202018842016841F059
:10337000010101600020BDE8F0810168052262F3CF
:1033800043010160216C19B9A16C00293FF4DCAE46
:103390000421D6E6076848F2200637430760012675
:1033A0000427A3E5000000002DE9F041044601F0E8
:1033B000EBFE34B3054694F83500022824D1276883
:1033C00040F20F46C4F2020640F26F483868B74236
:1033D00020F0010038606FF00E00C4F2020817DC24
:1033E0006F21C4F202018F4223DC3F21C4F20201AB
:1033F0008F4239DC1021C4F202018F4258D02821BB
:1034000051E00120BDE8F0818020606501203CE2B0
:1034100047451ADC40F23F41C4F202018F422ADCE8
:1034200040F21041C4F202018F4241D040F22841E3
:1034300039E09F21C4F202018F4225DC7021C4F2E1
:1034400002018F4234D088212DE040F29F41C4F226
:1034500002018F421FDC40F27041C4F202018F4230
:1034600026D040F288411EE04021C4F202018F4282
:103470001ED0582117E040F24041C4F202018F42B1
:1034800016D040F258410EE0A021C4F202018F4252
:103490000ED0B82107E040F2B841C4F202018F42D9
:1034A00006D040F2A041C4F202018F42394607D152
:1034B0003946386820F01E0041F8140B6FF0800088
:1034C0000A68474500EA0200086019DC9F20C4F240
:1034D0000200874231DC5720C4F20200874256DCEA
:1034E0001020C4F20200874200F091802820C4F22C
:1034F0000200874200F08B804020C4F2020084E08A
:1035000045F22F40C5F6020087422BDC40F2B7405F
:10351000C4F20200874248DC40F27040C4F202006C
:10352000874274D040F28840C4F2020087426ED0D5
:1035300040F2A040C4F2020067E040F22740C4F22B
:103540000200874240DCA020C4F2020087425ED025
:10355000B820C4F20200874259D040F21040C4F2B1
:10356000020052E045F26B40C5F6020087423CDCA7
:1035700045F23040C5F60200874248D045F244404B
:10358000C5F60200874242D045F258403BE0582041
:10359000C4F2020087423AD07020C4F2020087428F
:1035A00035D08820C4F202002FE040F2B840C4F2C7
:1035B000020087422BD045F20840C5F60200874240
:1035C00025D045F21C401EE040F22840C4F2020023
:1035D00087421CD040F24040C4F20200874216D01D
:1035E00040F25840C4F202000FE045F26C40C5F6CC
:1035F000020087420BD045F29440C5F60200874294
:1036000005D045F28040C5F60200874204D1206E05
:10361000016821F4807101603868C0070BD001F0A7
:10362000B3FD401B0628F7D320206065032084F8F3
:103630003500012029E12068B04210DC6F21C4F27E
:10364000020188421CDC3F21C4F20201884232DCC4
:103650001021C4F20201884250D028214AE040459E
:103660001ADC40F23F41C4F2020188422ADC40F2F7
:103670001041C4F20201884240D040F2284139E0B2
:103680009F21C4F20201884225DC7021C4F20201AC
:10369000884233D088212DE040F29F41C4F20201DC
:1036A00088421FDC40F27041C4F20201884225D0FA
:1036B00040F288411EE04021C4F2020188421DD040
:1036C000582117E040F24041C4F20201884215D06F
:1036D00040F258410EE0A021C4F2020188420DD010
:1036E000B82107E040F2B841C4F20201884205D097
:1036F00040F2A041C4F20201884259D1D4E9161225
:1037000002F01F023F2303FA02F28A60404559DCAF
:103710009F21C4F20201884214DC5721C4F2020145
:10372000884226DC1021C4F20201884200F09D800C
:103730002821C4F20201884200F097804021C4F29F
:10374000020190E040F22741C4F2020188421EDCEF
:10375000A021C4F20201884200F08780B821C4F29F
:103760000201884200F0818040F21041C4F202015F
:1037700079E05821C4F20201884276D07021C4F267
:103780000201884271D08821C4F202016BE040F24C
:103790002841C4F20201884267D040F24041C4F29D
:1037A0000201884261D040F25841C4F202015AE05D
:1037B000D4E9161202F01F02012303FA02F24A6052
:1037C0004045A5DD45F22F41C5F60201884216DCD1
:1037D00040F2B741C4F20201884225DC40F2704158
:1037E000C4F20201884240D040F28841C4F2020192
:1037F00088423AD040F2A041C4F2020133E045F2DF
:103800006B41C5F6020188421DDC45F23041C5F628
:103810000201884229D045F24441C5F6020188429E
:1038200023D045F258411CE040F2B841C4F20201F5
:1038300088421AD045F20841C5F60201884214D0E8
:1038400045F21C410DE045F26C41C5F6020188428B
:103850000BD045F29441C5F60201884205D045F2ED
:103860008041C5F6020188420BD1616EA26EE06E06
:103870004A6030B1016821F480710160D4E91C0113
:103880004160012084F835000020002184F83410C4
:10389000BDE8F0810000000080B5D8B190F8351087
:1038A000022919D140F20F420168C4F2020291428A
:1038B00016DC6F23C4F20203994226DC3F23C4F2D4
:1038C000020399423CDC1023C4F2020399425AD00D
:1038D000282354E0012080BD80214165012080BD66
:1038E00040F26F43C4F2020399421ADC40F23F43B4
:1038F000C4F2020399422ADC40F21043C4F20203EC
:10390000994240D040F2284339E09F23C4F2020399
:10391000994225DC7023C4F20203994233D08823F4
:103920002DE040F29F43C4F2020399421FDC40F2B3
:103930007043C4F20203994225D040F288431EE04E
:103940004023C4F2020399421DD0582317E040F2ED
:103950004043C4F20203994215D040F258430EE0AE
:10396000A023C4F2020399420DD0B82307E040F22D
:10397000B843C4F20203994205D040F2A043C4F216
:10398000020399426ED191424FF0040280F8352033
:1039900010DC6F20C4F20200814220DC3F20C4F220
:1039A0000200814236DC1020C4F20200814253D072
:1039B00028204EE040F26F40C4F2020081421ADC3F
:1039C00040F23F40C4F2020081422ADC40F2104043
:1039D000C4F2020081423FD040F2284039E09F20EB
:1039E000C4F20200814225DC7020C4F20200814250
:1039F00032D088202DE040F29F40C4F20200814284
:103A00001FDC40F27040C4F20200814224D040F238
:103A100088401EE04020C4F2020081421CD05820A1
:103A200017E040F24040C4F20200814214D040F25C
:103A300058400EE0A020C4F2020081420CD0B82011
:103A400007E040F2B840C4F20200814204D040F2E4
:103A5000A040C4F202008142086820F00100086022
:103A6000002080BD0A6822F001020A6045F2574238
:103A7000C5F6020291420A6822F00E020A600EDCCC
:103A800045F22F42C5F60202914217DC45F2084288
:103A9000C5F60202914226D045F21C421FE045F2D3
:103AA0007F42C5F60202914211DC45F25842C5F64A
:103AB0000202914217D045F26C4210E045F23042CA
:103AC000C5F6020291420ED045F2444207E045F2AB
:103AD0009442C5F60202914205D045F28042C5F6F5
:103AE000020291421AD1D0E9181CD0E916E30A6803
:103AF00022F480720A6003F01F01012202FA01F130
:103B0000CEF80410816ECCF80410C16E31B10A6891
:103B100022F480720A60D0E91C124A60012180F808
:103B20003510026D002180F834100AB19047002151
:103B3000084680BD000000002DE9F04381B000215F
:103B4000009140F250010446C2F2004148F2B51221
:103B5000C1F64E32A56D096840F26F490068C4F2A3
:103B60000209A1FB021848452E682A6815DC9F212E
:103B7000C4F2020188422BDC5721C4F202018842C0
:103B80004FDC1021C4F20201884278D02821C4F20F
:103B90000201884273D040216CE045F22F41C5F606
:103BA0000201884227DC40F2B741C4F20201884298
:103BB00043DC40F27041C4F2020188425FD040F21F
:103BC0008841C4F20201884259D040F2A04151E03C
:103BD00040F22741C4F2020188423DDCA021C4F238
:103BE000020188424BD0B821C4F20201884246D07B
:103BF00040F210413EE045F26B41C5F602018842B9
:103C000075DC45F23041C5F60201884200F0828041
:103C100045F24441C5F6020188427BD045F2584145
:103C200073E05821C4F20201884228D07021C4F206
:103C30000201884223D088211CE040F2B841C4F23E
:103C4000020188421BD045F20841C5F602018842B4
:103C500060D045F21C4158E040F22841C4F2020114
:103C600088420CD040F24041C4F20201884206D0A2
:103C700040F25841C4F20201884240F05A84E16D9A
:103C8000082201F01F018A40324200F0168140F202
:103C90000F43C4F2020398424FF0040313DC6F2772
:103CA000C4F20207B84200F391803F27C4F2020732
:103CB000B84200F3D2801027C4F20207B84200F0E5
:103CC000F0802827E8E0484500F38C8040F23F4729
:103CD000C4F20207B84200F3C78040F21047C4F2B2
:103CE0000207B84200F0DD8040F22847D4E045F2F8
:103CF0006C41C5F6020188420CD045F28041C5F600
:103D00000201884206D045F29441C5F6020188427C
:103D100040F00F840368E16D01F01F01042707FAEA
:103D200001F6164218BF13F004072CD1022707FA38
:103D300001F6164218BF13F002076AD1CA401207F3
:103D400040F1F78313F0080200F0F38340F20F42D2
:103D5000C4F2020290426FF01C0200F301836F2351
:103D6000C4F20203984200F333833F23C4F20203F8
:103D7000984200F368831023C4F20203984200F0D3
:103D80009A83282391E319046E603AD4990600F1CE
:103D9000CC8340F20F41C4F2020188426FF0080167
:103DA00000F303836F22C4F20202904200F32F83D8
:103DB0003F22C4F20202904200F38F831022C4F229
:103DC0000202904200F0AE832822A5E39F27C4F2AE
:103DD0000207B84251DC7027C4F20207B84260D033
:103DE000882759E040F29F47C4F20207B8424BDCF3
:103DF00040F27047C4F20207B84252D040F28847FE
:103E00004AE0D80300F1A482216C002940F09B8293
:103E10008FE319046E6000F1B682990600F1D58334
:103E200040F20F41C4F2020188426FF0140100F326
:103E300011836F22C4F20202904200F37D833F227D
:103E4000C4F20202904200F392831022C4F20202F2
:103E5000904200F0B1832822A8E34027C4F2020771
:103E6000B8421ED0582717E040F24047C4F202077C
:103E7000B84216D040F258470EE0A027C4F202071D
:103E8000B8420ED0B82707E040F2A047C4F20207BC
:103E9000B84206D040F2B847C4F20207B84218BF91
:103EA000082307681F4208D0036823F00403036057
:103EB000AA60626D42F00102626501228A403242CC
:103EC0006FD040F20F43C4F20203984210DC6F231C
:103ED000C4F2020398421CDC3F23C4F2020398425E
:103EE00032DC1023C4F20203984251D028234AE066
:103EF00048451ADC40F23F43C4F2020398422ADCF0
:103F000040F21043C4F20203984241D040F22843E9
:103F100039E09F23C4F20203984225DC7023C4F2E7
:103F20000203984234D088232DE040F29F43C4F22C
:103F3000020398421FDC40F27043C4F2020398422D
:103F400026D040F288431EE04023C4F20203984288
:103F50001ED0582317E040F24043C4F202039842B7
:103F600016D040F258430EE0A023C4F20203984258
:103F70000ED0B82307E040F2B843C4F202039842DF
:103F800006D040F2A043C4F20203984240F00182FE
:103F9000436903F0800323B1AA60626D42F002021C
:103FA000626504228A4032426FD040F20F43C4F26D
:103FB0000203984210DC6F23C4F2020398421CDC17
:103FC0003F23C4F20203984232DC1023C4F20203FE
:103FD000984251D028234AE048451ADC40F23F433A
:103FE000C4F2020398422ADC40F21043C4F20203F6
:103FF000984241D040F2284339E09F23C4F20203A3
:10400000984225DC7023C4F20203984234D08823FE
:104010002DE040F29F43C4F2020398421FDC40F2BD
:104020007043C4F20203984226D040F288431EE057
:104030004023C4F2020398421ED0582317E040F2F6
:104040004043C4F20203984216D040F258430EE0B7
:10405000A023C4F2020398420ED0B82307E040F236
:10406000B843C4F20203984206D040F2A043C4F21F
:104070000203984240F09381036803F0020323B1E6
:10408000AA60626D42F004026265102202FA01F138
:1040900031427DD040F20F42C4F2020290424FF012
:1040A000080210DC6F23C4F2020398421CDC3F2399
:1040B000C4F20203984232DC1023C4F20203984295
:1040C00051D028234AE048451ADC40F23F43C4F26D
:1040D000020398422ADC40F21043C4F202039842E1
:1040E00041D040F2284339E09F23C4F202039842B2
:1040F00025DC7023C4F20203984234D088232DE0DB
:1041000040F29F43C4F2020398421FDC40F2704326
:10411000C4F20203984226D040F288431EE04023B6
:10412000C4F2020398421ED0582317E040F24043E5
:10413000C4F20203984216D040F258430EE0A02386
:10414000C4F2020398420ED0B82307E040F2A04325
:10415000C4F20203984206D040F2B843C4F202030C
:10416000984218BF04220368134211D0A960016865
:104170004903016806D4C90506D4016821F0080185
:10418000016001E0080352D4216C09B12046884740
:10419000E06D00F01F01202000FA01F2324200F031
:1041A000A98040F20F432068C4F2020398424FF006
:1041B000100310DC6F27C4F20207B8421CDC3F2753
:1041C000C4F20207B84236DC1027C4F20207B84234
:1041D00055D028274EE048451ADC40F23F47C4F24C
:1041E0000207B8422EDC40F21047C4F20207B84280
:1041F00045D040F228473DE09F27C4F20207B8426D
:1042000029DC7027C4F20207B84238D0882731E091
:1042100040F29F47C4F20207B84223DC40F27047E5
:10422000C4F20207B8422AD040F2884722E0A16CCB
:104230000029ABD1ACE74027C4F20207B8421ED038
:10424000582717E040F24047C4F20207B84216D0A0
:1042500040F258470EE0A027C4F20207B8420ED041
:10426000B82707E040F2A047C4F20207B84206D0E0
:1042700040F2B847C4F20207B84218BF02230768E9
:104280001F4237D0AA6094F83520042A02681BD157
:1042900022F016020260426922F080024261226C22
:1042A0000AB9A26C1AB1026822F0080202603F202B
:1042B0008840A860012084F83500216D0020002985
:1042C00084F834003FD134E1510301680CD4C905AE
:1042D0000CD4016821F010010160012084F8350040
:1042E000002084F8340001E0080335D4E16B09B103
:1042F00020468847606D002800F01B81606DC00774
:104300001DD0042084F8350020684FEA9821026807
:1043100022F00102026000BF009A013200928A423C
:1043200002D80268D207F7D10068C0074FF0030037
:1043300008BF012084F83500002084F83400E16CC7
:10434000002900F0F680204601B0BDE8F0430847A0
:10435000A16C0029F7D1ECE0616C0029C8D1C9E754
:10436000484541DC40F23F43C4F20203984200F367
:10437000848040F21043C4F20203984200F09B8014
:1043800040F2284391E0D8033DD4616C0029DAD192
:10439000CFE003680023002B7FF4FEAD01E6036845
:1043A0000023002B7FF46CAE6FE648453CDC40F206
:1043B0003F42C4F20202904200F3968040F2104263
:1043C000C4F20202904200F0AD8040F22842A3E025
:1043D0009F23C4F20203984258DC7023C4F2020304
:1043E000984268D0882360E040F29F43C4F2020301
:1043F000984252DC40F27043C4F2020398425AD011
:1044000040F2884351E0E16B00299CD191E09F226A
:10441000C4F20202904270DC7022C4F202029042A6
:1044200000F08080882277E040F29F42C4F20202CE
:10443000904269DC40F27042C4F20202904271D0B4
:1044400040F2884268E04023C4F20203984232D02E
:1044500058232AE048457BDC40F23F42C4F2020286
:10446000904200F38B8040F21042C4F2020290426C
:1044700000F0A28040F2284298E040F24043C4F2AB
:104480000203984217D040F258430EE0A023C4F232
:10449000020398420FD0B82307E040F2A043C4F2D1
:1044A0000203984207D040F2B843C4F20203984294
:1044B00018BF6FF00E0203681A400260012000FA74
:1044C00001F16960606584F835000020E16C84F8D2
:1044D000340000297FF437AF2BE04022C4F20202FF
:1044E00090421FD0582217E040F24042C4F202022C
:1044F000904217D040F258420EE0A022C4F20202CD
:1045000090420FD0B82207E040F2A042C4F202026B
:10451000904207D040F2B842C4F20202904218BF63
:104520006FF00401026811400160216C00297FF4E2
:104530000AAF01B0BDE8F0839F22C4F202029042AC
:1045400025DC7022C4F20202904235D088222DE090
:1045500040F29F42C4F2020290421FDC40F27042DD
:10456000C4F20202904227D040F288421EE040226C
:10457000C4F2020290421FD0582217E040F240429B
:10458000C4F20202904217D040F258420EE0A0223C
:10459000C4F2020290420FD0B82207E040F2A042DB
:1045A000C4F20202904207D040F2B842C4F20202C2
:1045B000904218BF6FF00A010268114001600120AB
:1045C00084F83500002084F83400E16B00297FF482
:1045D000BAAEAEE7000000002DE9F041044600F05D
:1045E000D3FDECB140F26F4805462068C4F20208E2
:1045F000404518DC9F21C4F2020188422EDC57217D
:10460000C4F20201884254DC1021C4F20201884243
:104610007DD02821C4F20201884278D0402171E087
:104620000120BDE8F08145F22F41C5F60201884224
:1046300027DC40F2B741C4F20201884245DC40F277
:104640007041C4F20201884261D040F28841C4F254
:10465000020188425BD040F2A04153E040F2274182
:10466000C4F2020188423FDCA021C4F20201884268
:104670004DD0B821C4F20201884248D040F2104126
:1046800040E045F26B41C5F60201884200F392809A
:1046900045F23041C5F60201884200F09D8045F2A6
:1046A0004441C5F60201884200F0968045F2584127
:1046B0008EE05821C4F20201884228D07021C4F251
:1046C0000201884223D088211CE040F2B841C4F2A4
:1046D000020188421BD045F20841C5F6020188421A
:1046E0007AD045F21C4173E040F22841C4F2020145
:1046F00088420CD040F24041C4F20201884206D008
:1047000040F25841C4F20201884240F0C5800221C3
:1047100084F83510002184F83410016821F001017B
:10472000016000BF20680168C9070CD000F02CFDB3
:10473000401B0628F6D320206065032084F835004E
:104740000120BDE8F08148F23F0204F1080601684B
:10475000CFF61062114065694CCE1143A26919432E
:10476000E3693143266A0D43616A2B43042943EA16
:10477000060343EA020303D1D4E90B652E43334316
:1047800041F20006C5F600463668B6F1005F6CD30C
:104790006568A5F12906202E05D23F27CCF2C03747
:1047A000F740FF075CD1A5F14F060025042E38BF66
:1047B000012556E045F26C41C5F6020188420BD056
:1047C00045F28041C5F60201884205D045F2944188
:1047D000C5F6020188425FD104F1080E022184F877
:1047E0003510002184F834100168A3699EE8045054
:1047F000A2F18005E769B5FA85F566696D09402A79
:104800004FEA853543EA07026FF3101142EA0602C8
:1048100008BF102541EADC0142EA0E022943236A5F
:1048200041EAD2014AF6F832CAF2FD724CF6CD479F
:104830000244CCF6CC4741EA1311A2FB07230160E6
:104840006FF0030000EA9300E0652046FDF74CFCA2
:10485000E16D012201F01F0102FA01F1416045E022
:104860000125002D18BF43F4801303600429436918
:1048700023F0070341EA03012DD1D4E90A5341EAA9
:10488000050143B3B2F5005F08D09AB9022D16D0E6
:10489000012D09D09DB115E040204DE7032D11D821
:1048A000DFE805F00A0D0A02A3F1C072B2FA82F243
:1048B000520908E0032D01D2012204E002D1C3F322
:1048C000006200E0002232B140206065012084F8DF
:1048D0003500BDE8F08141612046FDF705FCE16D42
:1048E0003F2201F01F0102FA01F18160206840457A
:1048F00019DC9F21C4F20201884231DC5721C4F245
:104900000201884256DC1021C4F20201884200F004
:1049100092802821C4F20201884200F08C8040215C
:10492000C4F2020184E045F22F41C5F6020188423B
:104930002BDC40F2B741C4F20201884248DC40F26D
:104940007041C4F20201884275D040F28841C4F23D
:10495000020188426FD040F2A041C4F2020167E038
:1049600040F22741C4F20201884240DCA021C4F297
:10497000020188425FD0B821C4F2020188425AD0B5
:1049800040F21041C4F2020152E045F26B41C5F61B
:10499000020188423CDC45F23041C5F60201884202
:1049A00049D045F24441C5F60201884243D045F260
:1049B00058413BE05821C4F2020188423BD07021AB
:1049C000C4F20201884236D08821C4F202012FE0ED
:1049D00040F2B841C4F2020188422CD045F20841AD
:1049E000C5F60201884226D045F21C411EE040F285
:1049F0002841C4F2020188421DD040F24041C4F275
:104A00000201884217D040F25841C4F202010FE07F
:104A100045F26C41C5F6020188420CD045F2944142
:104A2000C5F60201884206D045F28041C5F6020172
:104A3000884240F0D08045F2574C45F6FC01C5F65F
:104A4000020CC5F6020160450EDC45F22F43C5F6A7
:104A50000203984217DC45F20843C5F60203984268
:104A600026D045F21C431FE045F27F43C5F6020302
:104A7000984211DC45F25843C5F60203984217D01C
:104A800045F26C4310E045F23043C5F6020398420C
:104A90000ED045F2444307E045F29443C5F60203C5
:104AA000984205D045F28043C5F60203984250D1A2
:104AB00000F0FC034CF6CD47083BCCF6CC47A3FBFB
:104AC0000737A1F1FC05A1F17C063B0905EB830248
:104AD0002266A26803F01F030127802A666607FA90
:104AE00003F2A26601D1002262606268A56ED4E979
:104AF0001876D3B2013A072A3B60756015D85E1E5E
:104B0000072E62D8604501F1440213DC45F22F47BD
:104B1000C5F60207B8423CDC45F20847C5F6020775
:104B2000B8424BD045F21C4744E000206067C4E91E
:104B30001B0050E045F27F47C5F60207B84231DC62
:104B400045F25847C5F60207B84237D045F26C47E0
:104B500030E000F0F8034AF6AB27103BCAF6AA276C
:104B6000A3FB073740F20F43C4F2020308253E09B6
:104B7000984203F1AA02334688BF05EB171340F6AB
:104B800000059042C4F2020528BF334605F18006B5
:104B90009CE745F23047C5F60207B8420ED045F211
:104BA000444707E045F28047C5F60207B84205D002
:104BB00045F29447C5F60207B84213D101EB8300D2
:104BC000E06601202267B040606704F16C020023B8
:104BD00007CA03604A6000206065012184F835102F
:104BE000BDE8F08140F60000C4F2020000F1FC01D3
:104BF00000F5A072E2E70000B0B5E0B3054690F81A
:104C00003400012801D10220B0BD012085F8340014
:104C100095F83500012828D1022085F835000020BC
:104C200068652868046824F0010404602846FDF7DC
:104C300073FB40F20F422868C4F2020240F26F4157
:104C40009042C4F2020118DC6F23C4F202039842BE
:104C500024DC3F23C4F2020398423ADC1023C4F25E
:104C60000203984259D0282352E04FF4006068654F
:104C7000002085F834000120B0BD88421ADC40F2E3
:104C80003F43C4F2020398422ADC40F21043C4F2CC
:104C90000203984241D040F2284339E09F23C4F2F6
:104CA0000203984225DC7023C4F20203984234D0F8
:104CB00088232DE040F29F43C4F2020398421FDC98
:104CC00040F27043C4F20203984226D040F2884377
:104CD0001EE04023C4F2020398421ED0582317E07E
:104CE00040F24043C4F20203984216D040F25843C7
:104CF0000EE0A023C4F2020398420ED0B82307E0CE
:104D000040F2B843C4F20203984206D040F2A043F6
:104D1000C4F20203984240F0238103680B2464F339
:104D2000440303602B6C1BB1082304682343036016
:104D3000884219DC9F23C4F20203984231DC5723D6
:104D4000C4F20203984256DC1023C4F202039842D4
:104D500000F091802823C4F20203984200F08B8077
:104D60004023C4F2020384E045F22F43C5F6020358
:104D700098422BDC40F2B743C4F20203984248DC6D
:104D800040F27043C4F20203984274D040F2884368
:104D9000C4F2020398426ED040F2A043C4F2020370
:104DA00067E040F22743C4F20203984240DCA023AC
:104DB000C4F2020398425ED0B823C4F202039842C0
:104DC00059D040F21043C4F2020352E045F26B4363
:104DD000C5F6020398423CDC45F23043C5F60203B7
:104DE000984248D045F24443C5F60203984242D067
:104DF00045F258433BE05823C4F2020398423AD0AC
:104E00007023C4F20203984235D08823C4F202030F
:104E10002FE040F2B843C4F2020398422BD045F28F
:104E20000843C5F60203984225D045F21C431EE014
:104E300040F22843C4F2020398421CD040F240439F
:104E4000C4F20203984216D040F25843C4F202035F
:104E50000FE045F26C43C5F6020398420BD045F2D1
:104E60009443C5F60203984205D045F28043C5F647
:104E7000020398426ED12B6E1C68E40303D51C68B4
:104E800044F480741C60EB6E1BB11D6845F48075A2
:104E90001D60904210DC6F21C4F2020188421CDCCC
:104EA0003F21C4F20201884232DC1021C4F2020127
:104EB00088424FD028214AE088421ADC40F23F4124
:104EC000C4F2020188422ADC40F21041C4F202011D
:104ED00088423FD040F2284139E09F21C4F20201CC
:104EE000884225DC7021C4F20201884232D0882138
:104EF0002DE040F29F41C4F2020188421FDC40F2E3
:104F00007041C4F20201884224D040F288411EE080
:104F10004021C4F2020188421CD0582117E040F21F
:104F20004041C4F20201884214D040F258410EE0E0
:104F3000A021C4F2020188420CD0B82107E040F25F
:104F4000B841C4F20201884204D040F2A041C4F248
:104F500002018842016841F0010101600020B0BDFA
:104F60000368052464F3430303602B6C002B3FF4B8
:104F7000DFAE0423D9E60000B0B5044600F004F922
:104F800040F640210546C2F20041621C097818BF74
:104F90000C4400BF00F0F8F8401BA042FAD3B0BDAB
:104FA0002DE9F04F82B00C68002C00F0C98000F1B0
:104FB000264242F2004302F1FF72C5F602030A27BD
:104FC00098424FEAB22540F2040E08BF0927092D86
:104FD000C5F6000E38BF4FEAB22700224FF0030C8F
:104FE00000970026002709E001370C6834FA07F320
:104FF00006F1020602F1040200F0A280012303FA86
:1050000007FA14EA0A08EFD0D1F804B00BF0030451
:10501000A4F10109B9F1010F11D8D0F808900CFAE8
:1050200006F3CD6829EA0303B5402B438360CBF335
:105030000015436823EA0A03BD402B434360032C59
:1050400002D18B68012B09D0D0F80C900CFA06F530
:105050008B6829EA0505B3402B43C360022C12D1AB
:105060006FF0030302F01C0503EA57030F24034407
:1050700004FA05FAD3F820900C6929EA0A09AC4031
:1050800044EA09041C6203680CFA06F44D68A34361
:1050900005F0030415F4403F04FA06F443EA040360
:1050A0000360A1D044F2F44440F2084AC5F6020479
:1050B000C5F6000A0F25236843F002032360236826
:1050C00003F00203019327F00303019C02F00C0498
:1050D00053F80A90A54029EA0509009D05FA04F451
:1050E00044EA090443F80A404FF0B04ADAF8009065
:1050F0004C6849EA0805E30258BF29EA0805A302FB
:10510000CAF80050DEF8009049EA080558BF29EABD
:105110000805A303CEF80050DEF8809049EA0805A0
:1051200058BF29EA0805E403CEF88050DEF87C3049
:1051300043EA080558BF23EA0805CEF87C5053E738
:1051400002B0BDE8F08F00000069084018BF0120E0
:105150007047000000000000002A08BF09048161B8
:10516000704700000000000041F20000C5F600405A
:1051700000686FF31F30704741F20000C5F6004031
:105180000068000C7047000046F29020C2F2024016
:10519000006870470000000090F84120202A03D1E9
:1051A00090F84020012A01D102207047242280F883
:1051B00041200268136823F001031360136823F48D
:1051C00080531360136819431160116841F00101A5
:1051D0001160202180F84110002180F8401008461D
:1051E000704700000000000090F84120202A03D101
:1051F00090F84020012A01D102207047242280F833
:1052000041200268136823F001031360136823F43C
:10521000706343EA01211160116841F001011160DE
:10522000202180F84110002180F840100846704786
:1052300000284ED010B5044690F8410028B900204F
:1052400084F84000204600F08FFD242084F84100BF
:1052500094E80310E36821F070610268012B22F0EA
:105260000102026001614FF40441826808BF4FF4FB
:10527000004122F40042826041EA0C0181604168F1
:10528000022B21F4006104F1100308BF01F5006155
:105290004160416841F0007141F400414160C168E2
:1052A00021F40041C1600ECB114341EA0321C160EA
:1052B000D4E9071211430160016841F00101016066
:1052C00000206064202184F84110206384F84200AB
:1052D00010BD0120704700002DE9F04F81B0044659
:1052E00090F84100202803D194F84000012803D110
:1052F000022001B0BDE8F08F1F4616468846012007
:1053000084F84000FFF740FF2168054689690904D9
:1053100026D4222084F84100102084F84200002086
:105320006064666240F200096785C0F2FF1960633D
:10533000608DB0F5807F49F60000CFF6004029D39C
:105340002168FF22228543466FF39F2351F8042FE3
:10535000024009F510572BE0206880690004D8D579
:10536000192120462A4604F03FF8002840F0998091
:10537000FFF70AFF401B1A28EED32068806900045B
:10538000EAD5606C40F020006064202084F8410081
:10539000012097E0618D42466FF39F222185CBB2B9
:1053A000216809F5923742EA034251F8043F03406D
:1053B0001A433A430A60618D0A9F00295FD06FF358
:1053C0009F287E1C4FF0FF0A00F5806B11E0618D75
:1053D0004FF0007320682185CAB248EA024150F8B4
:1053E000042F02EA0B02114319430160608D00286B
:1053F00045D0204639462A4604F092F8002850D17C
:105400002068616A406A0870218D606A01306062BC
:10541000481E2085618D01396185618D0029E5D0A7
:10542000000405D0E2E700BF206880690006A8D527
:105430002068806900060FD4204639462A4603F0CA
:10544000D3FF70BB002EF3D0FFF79EFE002FEBD0F2
:10545000401BB842ECD9E7E7608DB0F5807FB6D34A
:105460002068A4F828A042464B4650F8041F01EAE1
:105470000B01B8E72068806980067FF582AF20685D
:105480008069800611D4204639462A4603F0ACFFD5
:1054900038B9FFF779FE002FECD0401BB842EED9A7
:1054A000E8E7012001B0BDE8F08F206820214EF62A
:1054B0000003C161CFF6006342681A4042600020D9
:1054C00084F84110002184F8421084F8401001B0A3
:1054D000BDE8F08F000000002DE9F04F81B00446D8
:1054E00090F84100202803D194F84000012803D10E
:1054F000022001B0BDE8F08F1E4617468846012005
:1055000084F84000FFF740FE2168054689690904D8
:1055100016D4212084F84100102084F84200002095
:105520006064676266856063608DFF2822D94FF0F2
:105530008070FF2121E000BF206880690004E8D569
:10554000192120462A4603F04FFF002840F0C98069
:10555000FFF71AFE401B1A28EED32068806900046A
:10556000EAD5606C40F020006064202084F841009F
:105570000120C7E0618D4FF00070218581B1226864
:1055800017F8013B9362676247466FF39F27638D6D
:10559000013B63854B1E2385C9B247EA014106E002
:1055A000C9B242466FF39F2242EA0141226849F69E
:1055B00000495368CFF600490843A9F5806703EA1C
:1055C00007010A9F084340F400505060608D002896
:1055D00075D06FF39F2840F2000B7E1C4FF0FF0A3E
:1055E000C0F2FF1B04E000BF206880698007B8D5C7
:1055F00020688069800710D4204639462A4603F087
:10560000F3FE00286DD1002EF2D0FFF7BDFD002F74
:10561000EAD0401BB842EBD9E6E7616A206811F88E
:10562000012B82626162618D01396185218D0139B1
:105630002185628DCAB3090406D036E020688069EE
:1056400000067FF58EAF20688069000610D42046E2
:1056500039462A4603F0C8FE002842D1002EF2D077
:10566000FFF792FD002FE9D0401BB842EBD9E5E7E8
:10567000608DB0F5807F09D32068A4F828A0424649
:105680005B4650F8041F01EA09010BE0618D4FF001
:10569000007320682185CAB248EA024150F8042FFD
:1056A00002EA0902114319430160608D00289FD16D
:1056B00005E000BF2068806980067FF552AF206852
:1056C0008069800611D4204639462A4603F08CFEB4
:1056D00038B9FFF759FD002FECD0401BB842EED986
:1056E000E8E7012001B0BDE8F08F206820214EF6E8
:1056F0000003C161CFF6006342681A404260002097
:1057000084F84110002184F8421084F8401001B060
:10571000BDE8F08F000000002DE9F04F81B0044695
:1057200090F8410020280AD10A9F67B1DDF82CB01B
:10573000BBF1000F07D094F84000012807D10220E8
:1057400001B0BDE8F08F4FF400706064C7E01D4603
:1057500091468846012084F84000FFF715FD216836
:1057600006468969090429D4222084F84100402092
:1057700084F8420000206064676249F6000AE9B2DA
:10578000A4F82AB0606320686FF39F28CFF6004A20
:10579000426848EA014102EA0A02DDF830B01144E9
:1057A00001F500514160806980073DD40BF101078C
:1057B00028E000BF206880690004D5D51921204663
:1057C000324603F011FE002840F08980FFF7DCFC30
:1057D000801B1A28EED3206880690004EAD5606C2B
:1057E00040F020006064202084F84100002084F80C
:1057F000420072E02068806980075FD52068806978
:10580000800711D420465946324603F0EDFD0028AA
:1058100062D1002FF2D0FFF7B7FCBBF1000FE9D047
:10582000801B5845EAD9E5E7012D206822D04FEAD0
:1058300019218162806980071BD40BF1010507E003
:1058400020688069800739D520688069800710D476
:1058500020465946324603F0C7FDE8BB002DF3D081
:10586000FFF792FCBBF1000FEAD0801B5845EBD943
:10587000E6E720685FFA89F1816220688069400666
:1058800031D40BF1010707E020688069400615D587
:105890002068806940061ED420465946324603F0EF
:1058A000A3FDC8B90546002FF2D0FFF76DFCBBF190
:1058B000000FE9D0801B5845EAD9E5E7606C40F05D
:1058C00020006064202084F84100002084F8420019
:1058D00084F8400000E035B1002084F84000012049
:1058E00001B0BDE8F08F608D40F20009C0F2FF19F1
:1058F000B0F5807F09D32068FF21218509F510527A
:1059000050F8041F01EA0A010BE0618D206821852F
:10591000C9B250F8042F02EA0A0242EA014109F52D
:10592000923211430BF10105FF270AF5806A41EA23
:105930000801016004E02068806940077FF54FAFEF
:1059400020688069400711D420465946324603F04A
:105950004BFD0028C3D1002DF2D0FFF715FCBBF1A1
:10596000000FE8D0801B5845EAD9E4E72068616A57
:10597000406A0870218D606A01306062481E20858F
:10598000618D01396185618DC9B3000405D036E0B0
:105990002068806900067FF522AF206880690006D4
:1059A00011D420465946324603F01EFD002896D1F8
:1059B000002DF2D0FFF7E8FBBBF1000FE8D0801B11
:1059C0005845EAD9E4E7608DB0F5807F07D32068B9
:1059D00027854A4650F8041F01EA0A010BE0618D51
:1059E00020682185C9B250F8042F02EA0A0242EA6F
:1059F00001414FF00072114341EA08010160608DDE
:105A000000289DD120465946324603F0FDFD00286E
:105A10007FF465AF206820214EF60003C161CFF608
:105A2000006342681A40426084F84110002084F804
:105A3000420084F8400001B0BDE8F08F0000000093
:105A40002DE9F04F81B0044690F8410020280AD19A
:105A50000A9F67B1DDF82CA0BAF1000F07D094F8C7
:105A60004000012807D1022001B0BDE8F08F4FF4BB
:105A700000706064C9E01D4691468846012084F8A4
:105A80004000FFF781FB21680646896909042BD491
:105A9000E9B221206FF39F2884F84100402084F868
:105AA000420000206064676248EA0141A4F82AA02D
:105AB00049F6004A60632068CFF6004ADDF830B04E
:105AC0004268AAF580631A40114441F0807141F4A4
:105AD00000514160806980073CD40BF1010727E049
